:020000040800F2
:10000000480F002025020008F91A00088519000889
:10001000F51A0008B10F0008EF26000800000000E4
:10002000000000000000000000000000E9200008BF
:100030002117000800000000911F0008FD210008A2
:100040003F0200083F0200083F0200083F0200088C
:100050003F0200083F0200083F0200083F0200087C
:100060003F0200083F0200083F0200083F0200086C
:100070003F0200083F0200083F0200083F0200085C
:100080003F0200083F0200083F0200083F0200084C
:100090003F0200083F0200083F0200083F0200083C
:1000A0003F0200083F0200083F0200083F0200082C
:1000B0006122000879220008ED2200083F020008B2
:1000C0003F0200083F0200083F0200083F0200080C
:1000D0003F020008E92300083F02000871240008DD
:1000E0003F0200083F0200083F0200083F020008EC
:1000F0003F0200083F0200083F0200083F020008DC
:100100003F0200083F0200083F0200083F020008CB
:100110003F0200083F0200083F0200083F020008BB
:100120003F0200083F0200083F0200083F020008AB
:1001300000F002F800F066F80AA090E8000C824493
:100140008344AAF10107DA4501D100F05BF8AFF270
:10015000090EBAE80F0013F0010F18BFFB1A43F0A5
:1001600001031847047C0000247C000010F8013BC8
:100170000A4413F0030408BF10F8014B1D1108BF17
:1001800010F8015B641E05D010F8016B641E01F8C5
:10019000016BF9D1002D15D010F8014B03F00C03C1
:1001A0000C2BA1EB04040ABF10F8013BA4EB831451
:1001B000A4EB032405F1010314F8016B5B1E01F8A5
:1001C000016BF9D5914238BF10F8013BD1D370478C
:1001D0000023002400250026103A28BF78C1FBD850
:1001E000520728BF30C148BF0B607047642900F038
:1001F000A780782900F0E080002070471FB51FBD60
:1002000010B510BD00F07CFB1146FFF7F7FF04F0BE
:100210007FFE00F09AFB03B4FFF7F2FF03BC02F08D
:100220002AFB00000948804709480047FEE7FEE72F
:10023000FEE7FEE7FEE7FEE7FEE7FEE7FEE7FEE796
:1002400004480549054A064B704700000122000892
:100250003101000848090020480F0020480B002009
:10026000480B0020704710B54C1084EA530404D5A5
:100270004042C1F1000138BF491E1B4204D5524221
:10028000C3F1000338BF5B1E00F0FBF914F0804F90
:1002900004D04042C1F1000138BF491E14F0004FA4
:1002A00004D05242C3F1000338BF5B1E10BD0000F2
:1002B0000FB4044910B503AA029800F0DBFA10BC91
:1002C0005DF814FBAC0500200FB41CB5074B06AA63
:1002D0007B4469460090059800F0B3FA0020694617
:1002E00000F0C2FA1CBC5DF814FB0000950500008C
:1002F00070B5044685690068C10601D5302600E066
:100300002026C00707D070BDD4E9012130469047B0
:10031000206A401C20626D1EF6D570BD70B5044683
:1003200085690078C00707D170BDD4E9012120207C
:100330009047206A401C20626D1EF6D570BD0000FB
:100340002DE9F0410646002410687529314616A5AE
:1003500010D0AFF30080002802DA404213A507E076
:1003600031688A0701D512A502E0490704D511A515
:10037000012401E0AFF3008000210A2206F12407E6
:1003800009E0B0FBF2FCB0FBF2F302FB1C003030E2
:1003900078541846491C0028F3D123462A46304693
:1003A000BDE8F04100F0EFB9000000002D000000B2
:1003B0002B0000002000000070B504460D462146C9
:1003C0001068AFF300802188090502D50F4A7A44EE
:1003D00002E00E4A7A440E32002104F1240305E0C3
:1003E00000F00F060009965D5E54491C0028F7D105
:1003F00020780023000704D5702D02D009B1022314
:1004000011322046BDE8704000F0BDB9CC78000044
:100410002DE9F05F894604464FF0000ADFF824B169
:10042000FB44C0F820A02046E168884700287DD022
:10043000252806D0D4E901219047206A401C20627B
:10044000F1E700255F462046E168884720280646F8
:1004500007DB312E05D2B81910F8200C08B105437E
:10046000F1E7A80701D525F00405C4F81CA0002772
:10047000C4F818A02A2E09D0304602F0F5F938B396
:1004800004EB8708303EC8F8186019E059F8041BDF
:10049000204604EB87029161E1688847012F0646F8
:1004A00018D1E069002820DA25F020051DE0D8F8F1
:1004B000180000EB800006EB40003038C8F8180048
:1004C0002046E1688847064602F0CEF90028EED1C2
:1004D000012F0AD02E2E08D12046E16888477F1CC4
:1004E0000646022F45F02005C4DBA069002803DA88
:1004F000404245F00105A061E80701D025F0100554
:10050000A6B1A6F14100192802D8203645F40065AD
:100510004A463146204625604D46FFF767FE60B1EA
:10052000012807D0ED1D25F0070000E007E000F1ED
:10053000080978E705F1040975E730467AE7206A8B
:10054000BDE8F09FA2780000032A40F2308010F04E
:10055000030C00F0158011F8013BBCF1020F62445E
:1005600098BF11F801CB00F8013B38BF11F8013BEF
:10057000A2F1040298BF00F801CB38BF00F8013B9C
:1005800011F0030300F02580083AC0F0088051F80C
:10059000043B083A51F804CBA0E80810F5E7121D17
:1005A0005CBF51F8043B40F8043BAFF30080D20736
:1005B00024BF11F8013B11F801CB48BF11F8012B02
:1005C00024BF00F8013B00F801CB48BF00F8012B25
:1005D000704710B5203AC0F00B80B1E81850203AAF
:1005E000A0E81850B1E81850A0E81850BFF4F5AFD3
:1005F0005FEA027C24BFB1E81850A0E8185044BF5D
:1006000018C918C0BDE810405FEA827C24BF51F8C9
:10061000043B40F8043B08BF7047D20728BF31F8BD
:10062000023B48BF11F8012B28BF20F8023B48BF0E
:1006300000F8012B70474FF000020429C0F012802F
:1006400010F0030C00F02A81CCF1040CBCF1020F75
:1006500018BF00F8012BA8BF20F8022BA1EB0C015A
:1006600000F01CB95FEAC17C24BF00F8012B00F840
:10067000012B48BF00F8012B704770477047704747
:10068000704753EA020C00F069802DE9F04B4FF0FF
:100690000006002B1FBFB3FA83F503FA05F424FA12
:1006A00005F65E4012BF1643B2FA82F502FA05F46F
:1006B000C5F120051EBF22FA05FC44EA0C042035D2
:1006C00056EA044C4FEA144418BF641C4FF000086B
:1006D0004FF00009904271EB030C39D3002919BF88
:1006E000B1FA81F701FA07F6B0FA80F700FA07F6D7
:1006F000C7F120071EBF20FA07FC46EA0C06203788
:10070000B6FBF4FCA7EB0507103F07F01F0BCBF17E
:1007100020060CFA0BFB2CFA06F644BFB346002663
:10072000202FA4BF5E464FF0000B5BEA060C08BF0B
:100730004FF0010B19EB0B09ABFB027C48EB0608F1
:10074000C01B06FB02CC0BFB03CC71EB0C01C1E719
:100750000B46024641464846BDE8F08B13B54FF0C4
:1007600000004FF00001AFF30080BDE81C4070476F
:1007700010B500F0B9F8006810BD10B5044600F0DF
:10078000B3F8046010BD2DE9F0470D469946924636
:10079000044600F124080168880604D5E06921F0C8
:1007A0001001216000E00120A84201DD471B00E0AC
:1007B0000027A1697A1902EB0900081AA0612078C4
:1007C000C00602D42046FFF793FD002608E0D4E9D6
:1007D00001211AF806009047206A401C761C20620E
:1007E0004E45F4DB2078C0060AD52046FFF780FD91
:1007F00006E0D4E9012130209047206A401C2062A5
:10080000381EA7F10107F4DC07E0D4E9012118F84C
:1008100005009047206A401C2062281EA5F10105B2
:10082000F3DC2046FFF77AFD2078000602D502208F
:10083000BDE8F0870120FBE701694A1C02610878E6
:10084000704700B58FB0CDE9013100210591054910
:100850007944CDE9031011466846FFF7D9FD0FB082
:1008600000BD0000E5FFFFFF0A6802F8010B0A6007
:1008700070470000074B70B50D467B44FFF7E1FF62
:100880000446284600F034F810B14FF0FF3070BD38
:10089000204670BDE32400004FF0000200B513466F
:1008A00094469646203922BFA0E80C50A0E80C5090
:1008B000B1F12001BFF4F7AF090728BFA0E80C5041
:1008C00048BF0CC05DF804EB890028BF40F8042B3A
:1008D00008BF704748BF20F8022B11F0804F18BFA7
:1008E00000F8012B7047000000487047E80800201E
:1008F000007B00F08000704700487047E808002047
:100900007546FFF7F9FFAE4605006946534620F0ED
:100910000700854618B020B5FFF792FCBDE82040DF
:100920004FF000064FF000074FF000084FF0000BAB
:1009300021F00701AC46ACE8C009ACE8C009ACE85E
:10094000C009ACE8C0098D4670470446AFF300808B
:100950002046FFF760FC21B1826842F0010282600C
:1009600003E0826822F001028260704710B50446FD
:100970001248844208D10121401501F03BFB0021BF
:10098000601501F037FB17E00D48844208D10121C2
:10099000001501F02FFB0021201501F02BFB0BE0CF
:1009A0000848844208D10121C80301F023FB00213B
:1009B0004FF4004001F01EFB10BD00000024014078
:1009C00000280140003C0140014600208A6802F0F6
:1009D00004020AB1012000E0002070470146C86C03
:1009E00080B270470246002013680B400BB1012013
:1009F00000E000207047014600208A6802F00802EB
:100A00000AB1012000E000207047000030B5024626
:100A10000020002350680F4C20400D790C6844EAF8
:100A200005242043506090680B4C2040D1E90254CB
:100A30002C434D7944EA450420439060D06A20F469
:100A400070000C7C641EE4B2234340EA0350D06281
:100A500030BD0000FFFEF0FFFDF7F1FFF0B50446EA
:100A60000D4600200021092D11DDE068A5F10A06E0
:100A700006EB4607072606FA07F18843A5F10A06A2
:100A800006EB460603FA06F10843E0600CE0206935
:100A900005EB4507072606FA07F1884305EB4506EF
:100AA00003FA06F108432061072A0FDA606B561E2D
:100AB00006EB86071F2606FA07F18843561E06EB4B
:100AC000860605FA06F10843606322E00D2A0FDA74
:100AD000206BD61F06EB86071F2606FA07F1884310
:100AE000D61F06EB860605FA06F10843206310E0E0
:100AF000E06AA2F10D0606EB86071F2606FA07F14B
:100B00008843A2F10D0606EB860605FA06F10843B6
:100B1000E062F0BD816841F008018160704721B159
:100B2000826842F4A002826003E0826822F4A0029C
:100B300082607047816841F0040181607047000065
:100B400000B587B001214FF4017001F043FA002095
:100B50008DF81B00F020ADF8180003208DF81A0066
:100B600006A9174800F0DDFD1648FFF7FFFE00203C
:100B70008DF8090004904FF460200390002001904C
:100B800001208DF8140000208DF8080001A90D48FF
:100B9000FFF73CFF01210B48FFF7DDFE0948FFF797
:100BA000B9FF00BF0748FFF726FF0028FAD1054824
:100BB000FFF7C0FF0348FFF707FF07B000BD0000C5
:100BC000000801400024014010B500200F490860D2
:100BD0000F48006820F070400D4908600846006822
:100BE00040F04050086000200A49C1F89C010220F2
:100BF00002F076F8012005490860022002F070F842
:100C000000200449C1F8980110BD000098812142DC
:100C1000000C01400080214208B50121082001F0AC
:100C2000D9F9C020ADF8000010208DF80300032092
:100C30008DF802006946054800F073FD0120044963
:100C400008600449C1F89C0108BD0000000C014087
:100C5000988121420080214210B500200F49086090
:100C60000F48006820F070400D4908600846006891
:100C700040F04050086001200A49C1F89C01022060
:100C800002F02EF8012005490860022002F028F841
:100C900000200449C1F8980110BD0000988121424C
:100CA000000C01400080214270B505460024174821
:100CB000006820F07040154908600846006840F060
:100CC00000400860002616E000201149086002205C
:100CD00002F006F801200F49C1F898016006040EE1
:100CE0000B487C38006808B1601CC4B2012001F0D8
:100CF000F7FF701CC6B2082EE6DB15B9FFF7ACFF94
:100D000001E0FFF761FF204670BD0000000C0140CC
:100D1000988121420080214270B504461548006840
:100D200020F07040134908600846006840F04050C9
:100D30000860002010490860002517E0E0090E490E
:100D4000091D08606006040E022001F0C9FF0120A1
:100D50000A49C1F89801022001F0C2FF00200649AB
:100D60000860022001F0BCFF681CC5B2082DE5DB5D
:100D700070BD0000000C014098812142008021429A
:100D800010B50F48006820F070400D490860084613
:100D9000006840F04050086001200A4908600A4994
:100DA000C1F89801042001F09BFF0020054908606C
:100DB000042001F095FF00200349C1F8980110BDFF
:100DC000000C01409C8121420080214210B50F4857
:100DD000006820F070400D4908600846006840F047
:100DE0004050086000200A4908600A49C1F89C0187
:100DF000042001F075FF0120054908600549C1F88C
:100E00009C01042001F06CFF10BD0000000C0140AB
:100E1000988121420080214210B5002414480068C6
:100E200020F07040124908600846006840F0004019
:100E3000086001200F49086001F052FF01200E49AF
:100E4000C1F8980101F04CFF07E0601CC4B2FA2C15
:100E500003DDFFF7BBFF012010BD064880380068A6
:100E60000028F2D10349091F086000BFF4E7000021
:100E7000000C01409C8121420080214270B5044653
:100E80000E461546002C44D13EE00120454908603D
:100E900000204549C1F8B00142491031086043497A
:100EA000C1F88C01304601F0F5FE00203D49086094
:100EB0000120091D086000203A49103108603B49B3
:100EC000C1F88C01304601F0E5FE0020354908608C
:100ED000091D0860012033491031086000203349A2
:100EE000C1F88C01304601F0D5FE00202D49086084
:100EF000091D08602B491031086001202B49C1F8F9
:100F00008C01304601F0C6FE2800A5F101018DB22A
:100F1000BBD1012C44D13EE0002022490860224987
:100F2000C1F8B0011F491031086001201F49C1F804
:100F30008C01304601F0AEFE00201A490860091D00
:100F40000860012017491031086000201749C1F8D6
:100F50008C01304601F09EFE0020124908600120FD
:100F6000091D086000200F49103108600F49C1F8C1
:100F70008C01304601F08EFE01200A4908600020F5
:100F8000091D08600749103108600849C1F88C0143
:100F9000304601F07FFE2800A5F101018DB2BBD1E2
:100FA00070BD0000AC0121420000214200802142BE
:100FB00000BFFEE770B504460725012C7DD1002057
:100FC000FD49086000F0DCFDE2E2002000F0FCFCDE
:100FD0000446012C04D1681CC5B2082D00DB002595
:100FE000F6480278F6A1FA48FFF76EF90C23F84AA2
:100FF0000021082000F04AFFF6480288F6A1F448D4
:10100000FFF762F90C23F24A0121082000F03EFFAD
:10101000F5480288F5A1EE48FFF756F90C23EC4A93
:101020000221082000F032FFF4480288F4A1E848C9
:10103000FFF74AF90C23E64A0321082000F026FFB7
:10104000F3480288F3A1E248FFF73EF90C23E04A97
:101050000421082000F01AFFF2480288F2A1DC48BF
:10106000FFF732F90C23DA4A0521082000F00EFFC1
:10107000F1480288F1A1D648FFF726F90C23D44A9B
:101080000621082000F002FFF0480288F0A1D048B5
:10109000FFF71AF90C23CE4A0721082000F0F6FECC
:1010A000002D31D10C23EEA20021084600F0EEFE07
:1010B0000C23ECA20121002000E06BE200F0E6FE30
:1010C0000C23E7A20221002000F0E0FE0C23E4A2A2
:1010D0000321002000F0DAFE0C23E1A2042100200D
:1010E00000F0D4FE0C23DEA20521002000F0CEFE8D
:1010F0000C23DBA20621002000F0C8FE0C23D8A29E
:101100000721002000F0C2FE012D2FD10C23D4A214
:101110000021084600F0BAFE0C23D1A201210020D4
:1011200000F0B4FE0C23CFA20221002000F0AEFE9E
:101130000C23CBA20321002000F0A8FE0C23C8A2A0
:101140000421002000F0A2FE0C23C5A205210020EE
:1011500000F09CFE0C23C2A20621002000F096FEA7
:101160000C23BFA20721002000F090FE022D2FD1FA
:101170000C23BBA20021084600F088FE0C23B8A275
:101180000121002000F082FE0C23B5A202210020E4
:1011900000F07CFE0C23B3A20321002000F076FEB9
:1011A0000C23AFA20421002000F070FE0C23ACA29F
:1011B0000521002000F06AFE0C23A9A206210020D0
:1011C00000F064FE0C23A6A20721002000F05EFEC2
:1011D000032D2FD10C23A2A20021084600F056FEB9
:1011E0000C239FA20121002000F050FE0C239CA2A2
:1011F0000221002000F04AFE0C2399A203210020C6
:1012000000F044FE0C2397A20421002000F03EFED3
:101210000C2393A20521002000F038FE0C2390A29D
:101220000621002000F032FE0C238DA207210020B1
:1012300000F02CFE042D2FD10C2389A2002108469A
:1012400000F024FE0C2386A20121002000F01EFEE7
:101250000C2383A20221002000F018FE0C2380A2A0
:101260000321002000F012FE0C237DA204210020A7
:1012700000F00CFE0C237BA20521002000F006FEEE
:101280000C2377A20621002000F000FE0C2374A29C
:101290000721002000F0FAFD052D2FD10C2370A2AC
:1012A0000021084600F0F2FD0C236DA20121002070
:1012B00000F0ECFD0C236AA20221002000F0E6FD04
:1012C0000C2367A20321002000F0E0FD0C2364A2A0
:1012D0000421002000F0DAFD0C2361A2052100208A
:1012E00000F0D4FD0C235FA20621002000F0CEFD0B
:1012F0000C235BA20721002000F0C8FD062D2FD192
:101300000C2357A20021084600F0C0FD0C2354A274
:101310000121002000F0BAFD0C2351A2022100207F
:1013200000F0B4FD0C234EA20321002000F0AEFD1E
:101330000C234BA20421002000F0A8FD0C2348A29E
:101340000521002000F0A2FD0C2345A2062100206B
:1013500000F09CFD0C2343A20721002000F096FD25
:10136000072D28D10C233FA20021084600F08EFD56
:101370000C233BA20121002000F088FD0C2338A2A1
:101380000221002000F082FD0C2335A20321002061
:1013900000F07CFD0C2332A20421002000F076FD39
:1013A0000C232FA20521002000F070FD0C232CA29D
:1013B0000621002058E060E0B40122420E00002027
:1013C000576F726B696E67206D643A253464000054
:1013D000DC0500201E000020415F54656D70202058
:1013E00020203A253464000020000020415F487529
:1013F0006D20202020203A253464000022000020A7
:10140000415F70726520202020203A25346400005E
:1014100024000020415F677A5F76616C20203A25C6
:101420003464000026000020415F6D325F76616CFD
:1014300020203A253464000028000020415F6D37E9
:101440005F76616C20203A25346400002A00002079
:10145000415F6D3133355F76616C3A25346400004D
:10146000200000003E00000000F010FD0C23AFF251
:1014700010020721002000F009FD6DB9032C04D1F2
:1014800045480088401C44490880042C04D1424847
:101490000088401E40490880012D0DD1032C04D145
:1014A0003E480088401C3D490880042C04D13B483C
:1014B0000088401E39490880022D0DD1032C04D12B
:1014C00037480088143036490880042C04D1344849
:1014D0000088143832490880032D0DD1032C04D123
:1014E0003048008832302F490880042C04D12D4820
:1014F000008832382B490880042D0DD1032C04D1EB
:1015000029480088323028490880042C04D1264814
:101510000088323824490880052D0DD1032C04D1D0
:1015200022480088323021490880042C04D11F4809
:10153000008832381D490880062D0DD1032C04D1B6
:101540001B48008832301A490880042C04D11848FE
:101550000088323816490880072D14D1032C04D195
:1015600014480078401C13490870042C04D1114819
:101570000078401E0F4908700E480078022802DBF0
:1015800000200C490870022C02D100F0F9FA00E0AA
:101590001BE500BF70BD00001E00002020000020E1
:1015A0002200002024000020260000202800002027
:1015B0002A0000200E00002010B500241548006805
:1015C00020F07060134908600846006840F0006031
:1015D000086004E0601CC4B2012001F081FB0E48E9
:1015E000006808B1642CF5DB642C01DB012010BD20
:1015F000002404E0601CC4B2012001F071FB064825
:10160000006808B9642CF5DB642C01DB0120EEE7EF
:101610000020ECE7040C01403881214210B5002481
:1016200004E0601CC4B2012001F05AFB0D480068C0
:1016300008B1642CF5DB002404E0601CC4B2012076
:1016400001F04EFB0748006808B9642CF5DB282040
:1016500001F046FB0348006808B1012010BD0020DE
:10166000FCE700003881214270B50024002506E027
:101670006006040EFFF7D2FF0443681CC5B2082DB4
:10168000F6DB204670BD7CB505460E4600F028F816
:10169000FFF792FFF8B9002405E0FFF7E5FF0DF82A
:1016A0000400601CC4B2052CF7DB9DF800009DF817
:1016B000011008449DF8021008449DF803100844E6
:1016C0009DF80410884208D19DF8000030709DF804
:1016D0000200287001E001207CBD0020FCE7000032
:1016E00010B50C48006820F070600A490860084690
:1016F000006840F04070086000200749086014202E
:1017000001F0C8FA01200549C1F8B8011E2001F016
:10171000E7FA10BD040C0140B8812142008021424B
:1017200070472DE9F04102460025002600200023E5
:101730000024002791F803C00CF00F0591F803C0B6
:101740000CF0100CBCF1000F03D091F802C04CEA71
:10175000050591F800C0BCF1000F31D014680020DD
:101760002BE04FF0010C0CFA00F3B1F800C00CEACA
:1017700003069E4220D183004FF00F0C0CFA03F7B2
:10178000BC4305FA03FC4CEA040491F803C0BCF125
:10179000280F06D14FF0010C0CFA00FCC2F814C05F
:1017A0000AE091F803C0BCF1480F05D14FF0010CDD
:1017B0000CFA00FCC2F810C0401C0828D1D31460F9
:1017C000B1F800C0BCF1FF0F34DD546800202EE0FA
:1017D00000F1080C4FF0010808FA0CF3B1F800C052
:1017E0000CEA03069E4221D183004FF00F0C0CFA45
:1017F00003F7BC4305FA03FC4CEA040491F803C068
:10180000BCF1280F05D100F1080C08FA0CF8C2F859
:10181000148091F803C0BCF1480F07D100F1080C07
:101820004FF0010808FA0CF8C2F81080401C082894
:10183000CED35460BDE8F081F0B50A460023002401
:101840000021002500F00046B6F1004F02D11D4EE8
:10185000F16901E01B4E7168C0F3034583B200F4E7
:101860004016B6F5401F08D121F07061154E76681C
:1018700026F07066134F7E6012E000F48016B6F515
:10188000801F06D1032606FA05F4A14341F07061DA
:1018900006E0460D360103FA06F6B14341F07061E9
:1018A00022B1460D360103FA06F6314300F0004638
:1018B000B6F1004F02D1034EF16101E0014E7160BB
:1018C000F0BD0000000001400246002093680B407C
:1018D0000BB1012000E000207047416170470161B9
:1018E0007047000010B5044613491448FFF7CBFEBB
:1018F000134A1146134801F0BDF81248006805F07C
:10190000FDFB11490880042001F038FAC0F5805031
:101910000E490880072001F031FA0D4908800520A2
:1019200001F02CFA0B490880062001F027FAC0F5D7
:1019300080500949088010BDA5050020A40500209D
:10194000300000202C000020140000201600002091
:10195000180000201A0000201C00002010B541F6DD
:101960001F41092000F098FC4FF4165004F0E0FBF2
:101970001E210348FEF75FFE03F0ECF810BD0000E7
:10198000FA05002000BFFEE708B501210C2000F099
:1019900021FB4FF44870ADF8000048208DF803009B
:1019A00069460748FFF7BDFE0120ADF8000028207A
:1019B0008DF8030069460348FFF7B3FE08BD000039
:1019C000000C01400008014010B5044614B101208C
:1019D0002E4908702D48007800283AD020212C4844
:1019E000FFF772FF88B14FF480712948FFF76CFF51
:1019F00058B14FF400712648FFF766FF28B1012166
:101A00002448FFF761FF012823D10A2001F042F9A1
:101A100000201E49087020211D48FFF755FF08B916
:101A2000022010BD4FF480711948FFF74DFF08B92F
:101A30000320F6E74FF400711548FFF745FF08B99A
:101A40000420EEE701211348FFF73EFF01281AD1D9
:101A5000E7E720210E48FFF737FF012813D10102E5
:101A60000B48FFF731FF01280DD141020848FFF76D
:101A70002BFF012807D101210648FFF725FF10B9E8
:101A80000120024908700020CBE700004800002038
:101A9000000C01400008014008B501211C2000F0A5
:101AA00099FA0920ADF8000010208DF803000320FA
:101AB0008DF8020069460C48FFF733FE01210A4801
:101AC000FFF70BFF49F60800ADF80000694607482C
:101AD000FFF727FE4FF40050ADF8000069460448B8
:101AE000FFF71FFE08BD0000000C01400008014088
:101AF0000010014000BFFEE77047000070B50021F4
:101B000000230F22C47804B3154C246804F4E06465
:101B1000C4F5E064210AC1F10403CA40447804FA20
:101B200003F184781440214309010E4C0678A15535
:101B3000047804F01F050124AC4005786D11AD0058
:101B400005F1E025C5F8004109E0047804F01F051F
:101B50000124AC40044D0678761145F8264070BD4E
:101B60000CED00E000E400E080E100E00249014308
:101B7000024A1160704700000000FA050CED00E019
:101B800070B5002418E004F1B000002100F099F9CC
:101B90000021084600F095F90021102000F091F98D
:101BA000002505E00121002000F08BF9681CC5B27A
:101BB000802DF7DB601CC4B2082CE4DB70BD000094
:101BC00010B54FF480510948FFF789FE4FF40051DA
:101BD0000648FFF784FE4FF400510448FFF77DFEEE
:101BE0004FF480510148FFF778FE10BD000C014012
:101BF00010B54FF480510748FFF771FE4FF40051C4
:101C00000448FFF76AFE4FF400510248FFF767FEF1
:101C100010BD0000000C014010B54FF48051044885
:101C2000FFF75DFE4FF480510148FFF756FE10BDEF
:101C3000000C014008B50121092000F0CBF9012179
:101C40004348FFF7F9FD4FF44050ADF80000102075
:101C50008DF8030003208DF8020069463D48FFF728
:101C600060FD4FF440513B48FFF739FE4FF4487098
:101C700001F010F80021AE2000F023F90021084601
:101C800000F01FF90021102000F01BF90021402076
:101C900000F017F90021B02000F013F90021812095
:101CA00000F00FF90021FF2000F00BF90021A12026
:101CB00000F007F90021A62000F003F90021A82078
:101CC00000F0FFF800213F2000F0FBF80021C820C1
:101CD00000F0F7F80021D32000F0F3F800210846C7
:101CE00000F0EFF80021D52000F0EBF80021802073
:101CF00000F0E7F80021D82000F0E3F800210520EB
:101D000000F0DFF80021D92000F0DBF80021F120FD
:101D100000F0D7F80021DA2000F0D3F800211220DB
:101D200000F0CFF80021DB2000F0CBF800213020BC
:101D300000F0C7F800218D2000F0C3F80021142026
:101D400000F0BFF80021AF2000F0BBF808BD000094
:101D500000023000000C014070B504460D4605F14C
:101D6000B000002100F0ADF8102141EA141000216C
:101D700000F0A7F804F00F00002100F0A2F870BDF9
:101D80002DE9F04180460E46154600273146404673
:101D9000FFF7E2FF00240AE0124A02EB8511085D1A
:101DA000012100F08EF8781CC7B2601CC4B2102C60
:101DB000F2DB701CC1B24046FFF7CEFF00240CE0FE
:101DC0006900491C074A02EB4111085D012100F03E
:101DD00078F8781CC7B2601CC4B2102CF0DBBDE8E8
:101DE000F0810000490000202DE9F04707460E462B
:101DF0009046994600250024A8F12000C5B27F2F07
:101E000002DD0027B01CC6B2B9F1100F24D1314653
:101E10003846FFF7A1FF002408E004EB0511194A3A
:101E2000505C012100F04DF8601CC4B2082CF4DBBA
:101E3000701CC1B23846FFF78FFF002409E004EBA5
:101E4000051108310F4A505C012100F03AF8601C7E
:101E5000C4B2082CF3DB12E031463846FFF77CFFB2
:101E600000240AE005EB4501074A02EB4101085D49
:101E7000012100F026F8601CC4B2062CF2DBBDE89C
:101E8000F08700009E760008767400082DE9F04186
:101E900005460E4614461F460EE022783B46314664
:101EA0002846FFF7A1FF05F10800C5B2782D02DD35
:101EB0000025B01CC6B2641C20780028EDD1BDE816
:101EC000F08170B504460D461DB1E0B200F04AF84D
:101ED00002E0E0B200F030F870BD00002DE9F04102
:101EE00005462C464FF480511248FFF7F6FC0026B9
:101EF0001CE0274607F08007802F04D1B9010D4868
:101F0000FFF7EDFC04E04FF400510A48FFF7E5FC51
:101F10006006040E4FF480510648FFF7E0FC4FF4D2
:101F200080510448FFF7D9FC701CC6B2082EE0DBD4
:101F3000BDE8F081000C014010B50446FFF740FEFB
:101F40007820FFF7CBFFFFF767FE0020FFF7C6FF03
:101F5000FFF762FE2046FFF7C1FFFFF75DFEFFF7C8
:101F600047FE10BD10B50446FFF72AFE7820FFF7A4
:101F7000B5FFFFF751FE4020FFF7B0FFFFF74CFE23
:101F80002046FFF7ABFFFFF747FEFFF731FE10BD1E
:101F90007047000029B1064AD2690243044BDA6156
:101FA00004E0034AD2698243014BDA6170470000C2
:101FB0000010024029B1064A12690243044B1A611B
:101FC00004E0034A12698243014B1A617047000022
:101FD0000010024029B1064A92690243044B9A61FB
:101FE00004E0034A92698243014B9A617047000002
:101FF0000010024029B1064AD2680243044BDA605D
:1020000004E0034AD2688243014BDA607047000063
:102010000010024030B500210022002400232D4D85
:102020006D6805F00C0121B1042905D0082923D1E0
:1020300005E0294D056022E0274D05601FE0254D94
:102040006D6805F47012234D6D6805F48034022527
:1020500005EB92421CB9214D554305600BE01D4D27
:102060006D6805F400351DB11C4D5543056002E057
:10207000194D5543056002E0174D056000BF00BFD4
:10208000144D6D6805F0F0010909154D6B5C05688C
:10209000DD4045600F4D6D6805F4E061090A104DA3
:1020A0006B5C4568DD4085600A4D6D6805F46051E4
:1020B000C90A0B4D6B5C4568DD40C560054D6D6818
:1020C00005F44041890B074D6B5CC568B5FBF3F522
:1020D000056130BD0010024000127A0000093D0089
:1020E000B2050020C2050020704710B500F002F8CC
:1020F00010BD00000CB5002001900090334800682E
:1021000040F480303149086000BF3048006800F476
:10211000003000900198401C0190009818B9019877
:10212000B0F5A06FF1D12948006800F4003010B17B
:102130000120009001E0002000900098012843D188
:102140002348006840F010002149086008460068F4
:1021500020F0030008600846006840F002000860B4
:102160001A4840681949486008464068486008466F
:10217000406840F4806048600846406820F47C1065
:1021800048600846406840F4E81048600846006827
:1021900040F08070086000BF0C48006800F00070DC
:1021A0000028F9D00948406820F00300074948603A
:1021B0000846406840F00200486000BF034840689D
:1021C00000F00C000828F9D10CBD000000100240FE
:1021D00000200240042808D14FF0E021096941F0B5
:1021E00004014FF0E022116107E04FF0E02109699E
:1021F00021F004014FF0E0221161704770470000A8
:1022000010B51348006840F0010011490860084605
:102210004068104908400E494860084600680E4969
:1022200008400B4908600846006820F480200860D8
:102230000846406820F4FE0048604FF41F008860A4
:10224000FFF753FF4FF000600449086010BD000025
:10225000001002400000FFF8FFFFF6FE08ED00E06E
:1022600010B50121880700F05CF818B1012188073A
:1022700000F048F810BD000010B50121054800F03D
:1022800050F828B10121034800F03CF802F04CF965
:1022900010BD0000000400407FB505460C4601213A
:1022A0000220FFF777FEADF80850ADF8044000209B
:1022B000ADF80A00ADF8060001A90B4800F042F89D
:1022C0001D208DF8000000208DF8010003208DF8FE
:1022D000020001208DF803006846FFF70FFC012182
:1022E000014800F012F87FBD0004004010B5012144
:1022F000034800F016F80121014800F003F810BD72
:1023000000080040CA430282704721B1028842F0AF
:102310000102028004E002884FF6FE731A40028038
:10232000704730B50246002000230024158A05EAD4
:102330000103958905EA010413B10CB1012000E005
:10234000002030BD002202881D4B98420ED01D4B4C
:1023500098420BD0B0F1804F08D01B4B984205D06B
:102360001A4B984202D01A4B984204D14FF68F7301
:102370001A404B881A43174B984207D0164B984285
:1023800004D04FF6FF431A40CB881A4302808B8853
:1023900083850B8803850A4B98420BD0094B9842E2
:1023A00008D00E4B984205D00D4B984202D00D4BF1
:1023B000984201D10B7A0386012383827047000083
:1023C000002C01400034014000040040000800409F
:1023D000000C00400010004000140040004001408C
:1023E000004401400048014010B540F225511D480D
:1023F00000F0B9F810B31B4800F070F9C4B21A48E5
:10240000008800F40040C8B91748008800F48040F4
:1024100060B10A2C03D000201349088020E0124844
:10242000008840F400401049088019E00D2C06D1C6
:102430000D48008840F480400B49088010E00A48AD
:102440000088C0F30D0009490C5407480088401C5F
:102450000549088008460088C72801DD002008805B
:1024600010BD000000380140B005002048060020E3
:1024700008B540F22551074800F075F840B105480D
:1024800000F02CF9C0B200900121684601F006FF6F
:1024900008BD00000048004021B1828942F400528A
:1024A000828104E082894DF6FF731A408281704771
:1024B00010B504462048844209D101218803FFF762
:1024C00099FD00214FF48040FFF794FD32E01B4856
:1024D000844209D101214804FFF76CFD00214FF42B
:1024E0000030FFF767FD25E01548844209D101213E
:1024F0008804FFF75FFD00214FF48020FFF75AFDAD
:1025000018E01048844209D10121C804FFF752FDA8
:1025100000214FF40020FFF74DFD0BE00A488442F4
:1025200008D101210805FFF745FD00214FF4801077
:10253000FFF740FD10BD000000380140004400409E
:1025400000480040004C004000500040024600207F
:10255000B1F5007F00D100BF13880B400BB1012003
:1025600000E00020704770B50246002400230025DB
:10257000002040F66A16B14200D100BFC1F34215F7
:1025800001F01F03012606FA03F3012D02D19689FB
:10259000334006E0022D02D1168A334001E0968ACC
:1025A00033400C12012606FA04F41688344013B1A5
:1025B0000CB1012000E0002070BDF0B503460024FE
:1025C00000260025002040F66A17B94200D100BF5E
:1025D0001846C1F3421401F01F06012707FA06F559
:1025E000012C01D10C3004E0022C01D1103000E0AC
:1025F00014301AB107682F43076002E00768AF4341
:102600000760F0BD2DE9F04786B005460E46002470
:10261000A24600BFA1460027B08900B100BF2F46E7
:102620002C8A4CF6FF700440F08804432C82AC895D
:102630004EF6F3100440B08831890843718908438D
:102640000443AC81AC8A4FF6FF400440B089044398
:10265000AC8201A8FFF7DEFC1F48874202D1DDF8FB
:1026600010A001E0DDF80CA0A88900F4004040B102
:102670000AEBCA0000EB0A1031684900B0FBF1F820
:1026800007E00AEBCA0000EB0A1031688900B0FBD2
:10269000F1F86420B8FBF0F004012009642101FB8B
:1026A0001089A88900F4004040B1322000EBC90035
:1026B000B0FBF1F000F00700044308E0322000EB2B
:1026C00009106421B0FBF1F000F00F0004432C81ED
:1026D00006B0BDE8F0870000003801400146888858
:1026E000C0F308007047C1F308028280704700BF42
:1026F000FEE7000010B50446042C05D107A0FDF745
:10270000D7FD022002F058FA032C05D10AA0FDF7EC
:10271000CFFD002002F050FA10BD00005749464995
:10272000BDF8C8EB4169724C696E6BC1ACBDD3C4D6
:10273000A3CABD0D0A00000057494649B8B4CEBB34
:10274000A3ACC7EBD6D8D0C2C5E4D6C3C1ACBDD309
:102750000D0A0000490050EAC12018BF04204A0DAC
:1027600018BF40F0010040F2FF72B2EB515F08BFAA
:1027700040F00200012808BF052070472DE9F04114
:102780004F1E00EBC7010446D1E9000115461E4665
:1027900037F006020DD02A46334604F00FF87F1EAC
:1027A00004EBC703D3E9002303F08EFD37F00602E4
:1027B000F1D1022F25D0042F13D0062F18BFBDE86A
:1027C000F0812A46334603F0F9FFD4E90A2303F0E7
:1027D0007BFD2A46334603F0F1FFD4E9082303F0DA
:1027E00073FD2A46334603F0E9FFD4E9062303F0DC
:1027F0006BFD2A46334603F0E1FFD4E9042303F0DE
:1028000063FD2A46334603F0D9FFD4E9022303F0DF
:102810005BFD2A46334603F0D1FFD4E90023BDE82F
:10282000F04103F051BD000000221346104601495B
:1028300003F006BE0000F03F03F046BD0022134641
:102840001046114603F0FCBD40F2013200204FF06B
:10285000E04104F0CABD0000024A0020110704F064
:10286000C4BD000001FDFFFF30380A2801D201205D
:1028700070470020704700BF704700002DE9F14FFE
:1028800082B069488069C1174FF4FA33C41A61F104
:102890000005A4FB041005FB040004FB05036248CB
:1028A000B0F91000C217A1FB008A03FB00A001FBD6
:1028B00002095D48B0F90E00C117A0FB042301FB1B
:1028C000043100FB0510400440EAD230510411EB02
:1028D000080840EB09095448B0F90C0018F1000849
:1028E00049EBC009A4FB043005FB040004FB050C04
:1028F0004D48B0F90A004FEAE072A3FB001A0CFB46
:1029000000A003FB02024FEA112040EA02604FEAF6
:1029100022224549B1F908104FEAE17C2346A1FB88
:1029200003BE0CFB04E301FB05314FEA013141EA30
:102930001B514FEA0B3384461CEB030442EB0105A9
:10294000221C45F500403849C9880023A2FB01AC90
:1029500000FB01C002FB03004410C517002184EAFC
:1029600001006940084301D1BDE8FE8F0298C0F51F
:102970008010C7170646F80740EA5600F107B1EB8A
:10298000080160EB090040F635434FF0000CA1FB55
:10299000032A00FB03A001FB0C00CDE90020224626
:1029A0002B46DDE90001FDF75EFC06460F461E489A
:1029B000B0F91600C217710B41EAC74C7B13A0FB9C
:1029C0000C1A02FB0CA200FB0322700B40EAC7406A
:1029D0004FEA673CA1FB003A02FB00A001FB0C019F
:1029E000580E40EAC1144D160F48B0F91400C11733
:1029F000A0FB062301FB063100FB0711D00C40EAC7
:102A000041384FEAE149311947EB050011EB080164
:102A100040EB0900020642EA11200349B1F9121005
:102A20000901461830469FE71806002030B50146D8
:102A3000CC100F4D2D88A4EB45040D4DB5F9025077
:102A40006C43E2120A4C2488C4EB2114644324131F
:102A5000074DB5F904506C43A313D418044DAC6171
:102A60002C46A46904EB84048034201230BD00009D
:102A7000180600202DE9F05F04468946924600F0D2
:102A800041F81A480068FFF7D1FF834603F030FE93
:102A900007460022164B03F0D3FC054603F0E2FB89
:102AA0001449086014480068FFF7E8FE834603F005
:102AB00036FE05460022114B03F0C2FC074603F028
:102AC000D1FB0F49086021460D4803F02FF9094852
:102AD0000068C9F800000A4800682060204600F03D
:102AE00079F8CAF80000BDE8F09F000094050020C6
:102AF000000059409C050020900500200000D940AE
:102B0000A00500201CB56B460622F721EC2002F040
:102B100097F99DF8000000039DF8011040EA0110AC
:102B20009DF8021040EA1110074908609DF8030063
:102B300000039DF8041040EA01109DF8051040EADA
:102B40001110024908601CBD90050020940500206A
:102B500010B51848007808B1012010BDFEF75CF8E8
:102B6000142000F097F8D021EC2002F099F91249D6
:102B7000087008460078582805D1084601780FA04B
:102B8000FDF796FB01E00020E7E7114B18228821B2
:102B9000EC2002F055F9B322F421EC2002F0A0F968
:102BA0001422F521EC2002F09BF901200149087064
:102BB00000BFD2E78D0500208C050020424D503229
:102BC00038302049442049533A20307825580A00AB
:102BD000180600202DE9FF5F82460021DAF8000088
:102BE00004F02BFB25D21448DAF8001004F090F919
:102BF000834604F0F3F8114A114BCDE9000102F0CD
:102C0000B9FB064600220F4B03F0FEFF4FF0C04217
:102C10000D4BCDE9020103F0D1FD80464FF000429B
:102C20000A4B03F00DFC044603F01CFB04B0BDE8A6
:102C3000F09F0020FAE70000CDEC7D4428610C876E
:102C40008A5AC83F0000F03F66A27240BE9F7A3F9A
:102C500010B56FF00400FFF7BDFA0A4800680A4992
:102C6000B0FBF1F0094908700846007800EB40011C
:102C7000C1EBC0104FF6FF7101EAC00004490880A3
:102C800010BD00003400002000127A00A6050020CC
:102C9000A80500200146114A12884A434FF0E0235C
:102CA0005A6100229A611A46126942F001021A61C1
:102CB00000BF4FF0E022106900F001021AB100F4E9
:102CC0008032002AF5D04FF0E022126922F0010292
:102CD0004FF0E0231A6100229A617047A805002096
:102CE0000146114A12784A434FF0E0235A6100220C
:102CF0009A611A46126942F001021A6100BF4FF050
:102D0000E022106900F001021AB100F48032002ABA
:102D1000F5D04FF0E022126922F001024FF0E023DB
:102D20001A6100229A617047A605002001B581B0A2
:102D300000200090694601AA507808701078487009
:102D4000BDF800000CBD0146080601F47F4240EAD0
:102D5000022001F47F0240EA122040EA116070472D
:102D600000BF054A128802F04002002AF9D0C2B220
:102D7000014B1B1D1A8070470038014010B50446F6
:102D80000723012221460948FDF768FE0121074873
:102D9000FDF7C5FE00BF02210448FDF723FE002811
:102DA000F9D00248FDF71AFE10BD000000240140D2
:102DB000024612B102F0070028B9082901D8002004
:102DC00070470120FCE702F00700C0F108008842CC
:102DD00001D30020F4E70120F2E730B502460B46AC
:102DE0000021002400250AB9481E30BD002108E05A
:102DF000545C581A401E155C5554581A401E145401
:102E0000491CB1EB530FF3D30020EEE72DE9F0415D
:102E100004460D460026002704B135B933A0FDF75E
:102E200047FA4FF0FF30BDE8F08100F0C1FA0746E5
:102E300028782178884203D036A0FDF739FA012698
:102E400068786178884203D037A0FDF731FA01260F
:102E5000D5F80200D4F80210884203D038A0FDF75C
:102E600027FA0126D5F80600D4F80610884203D0C8
:102E700038A0FDF71DFA0126D5F80A00D4F80A108B
:102E8000884203D038A0FDF713FA0126D5F80E00CA
:102E9000D4F80E10884203D038A0FDF709FA0126B5
:102EA000D5F81200D4F81210884203D039A0FDF7EB
:102EB000FFF90126D5F81600D4F81610884203D081
:102EC0003AA0FDF7F5F90126D5F81A00D4F81A1042
:102ED000884203D03BA0FDF7EBF90126012E03D178
:102EE00000F066FA3E49086030469CE767697A431D
:102EF0006865636B5265706F7274204572726F7291
:102F0000202C20496C6C6567616C20506172616D8A
:102F10000A00000076616C75654C45442043686189
:102F20006E6765640A00000076616C7565437572B2
:102F30007461696E204368616E6765640A00000011
:102F400076616C756554656D70204368616E676568
:102F5000640A000076616C756548756D2043686190
:102F60006E6765640A00000076616C756550726575
:102F7000204368616E6765640A00000076616C75C5
:102F800065475A5F56616C7565204368616E676579
:102F9000640A000076616C75654D51325F56616C54
:102FA0007565204368616E6765640A0076616C75BB
:102FB000654D51375F56616C7565204368616E677A
:102FC00065640A0076616C75654D513133355F5625
:102FD000616C7565204368616E6765640A00000076
:102FE000CC050020F8B505460C4616460DB104B1D7
:102FF0002EB96EA0FDF75CF94FF0FF30F8BD02214D
:103000002846FFF7EAFEB0F1FF3F05D172A0FDF7B9
:103010004FF94FF0FF30F1E7287800F0010098B148
:1030200011212278601C81542078401C20700120DE
:10303000AB1C024600210090084601F013FA08B1CB
:10304000012000E0002030702878C0F3400098B1E3
:1030500012212278601C81542078401C20700120AD
:10306000AB1C024601460090002001F0FBF908B1BC
:10307000012000E0002070702878C0F3800068B163
:1030800013212278601C81542078401C2070EA783B
:103090000021012001F050FAC6F802002878C0F3A0
:1030A000C00068B114212278601C81542078401C33
:1030B00020702A790021012001F03EFAC6F80600AE
:1030C0002878C0F3001090B115212278601C81543B
:1030D0002078401C2070B5F80500FFF727FE074652
:1030E0003A460021012001F027FAC6F80A002878A4
:1030F000C0F3401090B116212278601C81542078D2
:10310000401C2070B5F80700FFF710FE07463A464E
:103110000021012001F010FAC6F80E002878C0F353
:10312000801090B117212278601C81542078401CB7
:103130002070B5F80900FFF7F9FD07463A4600216F
:10314000012001F0F9F9C6F8120028780121B1EB4D
:10315000D01F12D118212278601C81542078401C85
:103160002070B5F80B00FFF7E1FD07463A46002155
:10317000012001F0E1F9C6F81600687800F00100BE
:1031800090B119212278601C81542078401C207055
:10319000B5F80D00FFF7CAFD07463A4600210120A9
:1031A00001F0CAF9C6F81A00002027E767697A44D7
:1031B000617461506F696E74324576656E74204536
:1031C00072726F72202C20496C6C6567616C2050A4
:1031D0006172616D0A00000067697A427974654F17
:1031E0007264657245786368616E676520457272C6
:1031F0006F720A00F8B505460C4605B12CB931A02E
:10320000FDF756F84FF0FF30F8BD00202070AD1CE0
:1032100015F8020C2346012200210090084601F017
:10322000E1F815F8010C2346012211460090002018
:1032300001F0D8F801212046FFF7CFFD2A680021D0
:10324000012001F07FF904F8010F6A6800210120D4
:1032500001F078F96070AA680021012001F072F98C
:1032600086B23046FFF762FD6080EA6800210120E7
:1032700001F068F986B23046FFF758FDA0802A6950
:103280000021012001F05EF986B23046FFF74EFDC5
:10329000E0806A690021012001F054F986B23046CD
:1032A000FFF744FD2081AA69AD1E0021012001F035
:1032B00049F986B23046FFF739FD6081641E00206F
:1032C000A2E7000067697A44617461506F696E74A7
:1032D00073325265706F727444617461204572720A
:1032E0006F72202C20496C6C6567616C2050617294
:1032F000616D0A0070B5054600F05AF804461D4994
:103300002846FFF783FD012813D11BA0FCF7D0FF4F
:1033100018492B392846FFF76DFF28B90D221549AA
:103320002B39042000F0F4FF1E2229461148FDF736
:103330000BF91748B4FBF0F100FB1140C8B9154870
:103340000068A04215D014A0FCF7B2FF09492B3940
:103350002846FFF74FFF28B90D2206492B390420D4
:1033600000F0D6FF1E2229460248FDF7EDF8094875
:10337000046070BD250800206368616E6765642C79
:10338000207265706F727420646174610A000000BD
:10339000C0270900D0050020496E666F3A203630FC
:1033A0003053207265706F727420646174610A001A
:1033B0000148006870470000C805002010B5174894
:1033C00090F85400012827D1144890F8530002289F
:1033D0001DDAFFF7EDFF1149D1F87A10401AC8281D
:1033E0001AD9FFF7E5FF04460C4890F85330D0F89F
:1033F0007A2021460AA0FCF75BFF00F0A7FE0748F1
:1034000090F85300401C054981F8530004E02B213B
:1034100002485330FDF70FF910BD000010070020DF
:103420005761726E696E673A67697A50726F746F2E
:10343000636F6C526573656E6444617461202564CA
:103440002025642025640A003EB50446002524B9E1
:1034500013A0FCF72DFF681E3EBD20680090606839
:1034600001909DF80400401CC0B28DF804000520B6
:10347000FFF75CFCADF802000921684600F0A4FEED
:103480008DF808000921684602F0D2FD0546002D9E
:1034900003DA29460DA0FCF70BFF2846DCE7000005
:1034A0004552523A2067697A50726F746F636F6C3D
:1034B000436F6D6D6F6E41636B2064617461206951
:1034C0007320656D707479200A0000004552523AED
:1034D0002075617274207772697465206572726FED
:1034E00072202564200A0000FEB504460E46002521
:1034F00024B914A0FCF7DCFE681EFEBD684600F08F
:10350000D7F912208DF8040060798DF805000620A7
:10351000FFF70CFCADF802008DF808600A21684640
:1035200000F052FE8DF809000A21684602F080FD85
:103530000546002D03DA29460DA0FCF7B9FE284602
:10354000DBE7000067697A50726F746F636F6C45D8
:1035500072726F72436D64204572726F72202C20FC
:10356000496C6C6567616C20506172616D0A000086
:103570004552523A207561727420777269746520E1
:103580006572726F72202564200A000030B59DB00C
:10359000044600252CB92BA0FCF78AFE681E1DB03E
:1035A00030BD684600F084F902208DF8040060798F
:1035B0008DF805002FA103C9CDE9020130A103C98F
:1035C000CDE9040131A103C9CDE9080132A103C944
:1035D000CDE90601202233A10AA8FCF7FAFF202238
:1035E00039A10DF15200FCF7AFFF0020CDF84A00E1
:1035F000CDF84E009DF851008DF851009DF8510016
:1036000040F002018DF851100020FFF78FFBADF85C
:1036100048006F20FFF78AFBADF80200732168466F
:1036200000F0D2FD8DF872007321684602F000FDB3
:103630000546002D03DA29462CA0FCF739FE284662
:10364000ADE7000067697A50726F746F636F6C4703
:103650006574446576696365496E666F204572726C
:103660006F72202C20496C6C6567616C2050617210
:10367000616D0A00303030303030303400000000EE
:1036800030303030303030320000000030333033F2
:1036900030303030000000003033303130313030E5
:1036A0000000000031316237313434636232373325
:1036B0003436656161666233363133636337306354
:1036C000373532370000000065363161333738391D
:1036D00039343536343562326132343864633266B7
:1036E0003761393832363134000000004552523AE1
:1036F0002075617274207772697465206572726FCB
:1037000072202564200A00002DE9FE4F80460E46F7
:1037100017464FF0000B002002908146824600259C
:1037200034460090B8F1000F01D006B137B950A06F
:10373000FCF7BEFD4FF0FF30BDE8FE8F404602F0C3
:1037400075FB00F0FF0ABAF1000F02D14FF0FF3015
:10375000F2E74FF000095DE0012201A9404602F0C6
:10376000A2FB8346BBF1000F52D04D480078FF28E2
:103770001FD19DF80400FF281BD14A48007848B9A2
:10378000FF202070607002204749088001204549D1
:10379000087034E044480088042830DD424800883E
:1037A000A8422CD0FF202070607002203E49088083
:1037B00025E03B480078FF2803D19DF804005528F8
:1037C0001DD038480078012819D19DF804003649E9
:1037D0000988605434480088401C334908800846F2
:1037E000008804280BDD0094009C6088FFF79EFA97
:1037F000001D85B22C480088A84200D10CE09DF83D
:1038000004002749087029480078401C274908709F
:1038100009F10109D1459FDB00BF23480088042836
:1038200023DD21480088A8421FD11F480188204677
:1038300000F0CAFC02901C480088401E215C0298DF
:1038400081420FD12A4621463046FCF77DFE3D805D
:103850000020144908701449088014490870104960
:10386000087069E76FF0010066E7012064E7000077
:1038700067697A50726F746F636F6C4765744F6ECF
:10388000655061636B6574204572726F72202C20E5
:10389000496C6C6567616C20506172616D0A000053
:1038A000D8050020D4050020D6050020D905002029
:1038B00010B504462CB907A0FCF7FAFC4FF0FF3016
:1038C00010BD002020606060FF202070607000202C
:1038D000F6E700004552523A2067697A50726F74D9
:1038E0006F636F6C48656164496E697420686561D7
:1038F0006420697320656D707479200A00000000EF
:103900002DE9F04F93B006468B46174699460020A6
:1039100012908246804600256C46BBF1000F06D10E
:1039200030A0FCF7C5FC681E13B0BDE8F08FB9F1FC
:10393000010F06D196F8088008F10600384485B2D8
:1039400001E0781D85B22B46424639462BA0FCF794
:10395000AFFCFF2004F8010B04F8010B281204F857
:10396000010B04F8015B3079401C04F8010B7079FD
:1039700004F8010B002004F8010B04F8019B4FF040
:10398000080AB9F1010F0CD104F8018B0AF1010A00
:103990000DEB0A00424606F10901FCF7D5FDC244D1
:1039A00044442FB10DEB0A003A465946FCF7CCFDD2
:1039B000291D684600F008FC0146E81C0DF80010BF
:1039C000291D684602F034FB12901298002806DA8E
:1039D00014A01299FCF76CFC6FF00100A4E7002022
:1039E000A2E700005B4552525D20206461746120B3
:1039F0004973204E756C6C200A0000006C656E20C7
:103A00003D202564202C20734469644C656E203D64
:103A1000202564202C646174615F6C656E203D20FC
:103A200025640A0075617274207772697465206577
:103A300072726F72202564200A0000002DE9F047A1
:103A400080460C4617461D46089E94F800900CB11F
:103A500005B136B92FA0FCF72BFC4FF0FF30BDE8C5
:103A6000F087B8F1000F53D11B213648FCF7E3FD76
:103A7000B9F1010F06D0B9F1020F11D0B9F1050F5C
:103A800044D123E02F4A79322E49601CFFF7AAFA6D
:103A900001202C497E39087000250020306036E076
:103AA00028496C3101F12B00FFF7A4FB50B90D221E
:103AB00024496C31681CFCF747FD032028700E2058
:103AC000306002E04FF0FF30C9E720E07A1E611C51
:103AD0001C485A38FCF738FD781E1A497E39C1F85F
:103AE0004700102117487E3890F87E207F3081549F
:103AF0007F3890F87E00401C12497E3981F87E00A4
:103B00000320087000250020306000E000BF00BFE7
:103B10000020A4E767697A50726F746F636F6C4915
:103B2000737375656450726F636573732045727249
:103B30006F72202C20496C6C6567616C205061723B
:103B4000616D0A008E07002070B5044625462CB929
:103B50000EA0FCF7ADFB4FF0FF3070BD412205F128
:103B600008010E48FCF7F0FC0F210D4890F8CF201B
:103B7000D0308154D03890F8CF00401C084981F8EB
:103B8000CF00052008700020E7E700004E545020C9
:103B9000697320656D707479200A00005008002058
:103BA0001007002010B504462CB9CAA0FCF780FB12
:103BB0004FF0FF3010BD2089FFF7B8F82081D148C1
:103BC0000078C0F38000217AC1F38001884256D08A
:103BD000207AC0F38000002829D0207A00F001006C
:103BE00078B10021C84890F899209A3081549A38C9
:103BF00090F89900401CC44981F89900C3A0FCF7D3
:103C000057FB207AC0F34000002838D00121BE487D
:103C100090F899209A3081549A3890F89900401C75
:103C2000B94981F89900C1A0FCF742FB27E0207A4E
:103C300000F0010078B10021B34890F899209A3043
:103C400081549A3890F89900401CAF4981F8990046
:103C5000AEA0FCF72DFB207AC0F3400078B1022122
:103C6000A94890F899209A3081549A3890F8990090
:103C7000401CA54981F89900B3A0FCF719FBA148A5
:103C80000078C0F3C000217AC1F3C00188422CD073
:103C9000207AC1089B48007861F3C30099490870F5
:103CA000207AC0F3C00080B10321974890F8992092
:103CB0009A3081549A3890F89900401C924981F8C2
:103CC0009900A8A0FCF7F4FA0FE004218E4890F8C0
:103CD00099209A3081549A3890F89900401C8A496A
:103CE00081F89900A7A0FCF7E3FA86480078C0F3B2
:103CF0000010217AC1F3001188422CD0207A0109EA
:103D00008048007861F304107E490870207AC0F37F
:103D1000001080B105217C4890F899209A30815498
:103D20009A3890F89900401C774981F899009DA035
:103D3000FCF7BEFA0FE00621734890F899209A30FC
:103D400081549A3890F89900401C6F4981F8990085
:103D50009CA0FCF7ADFA6B480078C0F34010217AC4
:103D6000C1F3401188422CD0207A4109654800787F
:103D700061F3451063490870207AC0F3401080B1A8
:103D80000721614890F899209A3081549A3890F828
:103D90009900401C5C4981F8990093A0FCF788FACF
:103DA0000FE00821584890F899209A3081549A38A9
:103DB00090F89900401C544981F8990091A0FCF7B3
:103DC00077FA50484078C0F3C001607AC0F3C00071
:103DD00081422CD0607AC1084A48407861F3C30020
:103DE00048494870607AC0F3C00080B10B21464852
:103DF00090F899209A3081549A3890F89900401C94
:103E0000414981F8990087A0FCF752FA0FE00C2194
:103E10003D4890F899209A3081549A3890F899004A
:103E2000401C394981F8990085A0FCF741FA3548D2
:103E30004078C0F30011607AC0F3001081422CD0AA
:103E4000607A01092F48407861F304102D494870C9
:103E5000607AC0F3001080B109212B4890F89920B6
:103E60009A3081549A3890F89900401C264981F87C
:103E700099007BA0FCF71CFA0FE00A21224890F879
:103E800099209A3081549A3890F89900401C1E4924
:103E900081F8990079A0FCF70BFA0D211A4890F8E7
:103EA00099209A3081549A3890F89900401C16490C
:103EB00081F89900607A00F0070081F83301084624
:103EC00090F8331174A0FCF7F3F902200E49087042
:103ED00000206FE667697A50726F746F636F6C4D84
:103EE0006F64756C65537461747573204572726F7D
:103EF00072202C20496C6C6567616C205061726186
:103F00006D0A0000DA050020100700204F6E426F96
:103F1000617264696E673A20536F66744150206F16
:103F20007220576562206D6F64650A004F6E426FA4
:103F3000617264696E673A204169724C696E6B20E8
:103F40006D6F64650A0000004F6E426F61726469B4
:103F50006E673A2053746174696F6E206D6F64658B
:103F60000A00000057694669207374617475733ADA
:103F700020696E2062696E64696E67206D6F64658A
:103F80000A00000057694669207374617475733ABA
:103F9000206F75742062696E64696E67206D6F644E
:103FA000650A000057694669207374617475733A35
:103FB00020636F6E6E656374656420726F757465DF
:103FC000720A000057694669207374617475733A08
:103FD00020646973636F6E6E656374656420726FCD
:103FE000757465720A000000576946692073746130
:103FF0007475733A20636F6E6E6563746564206DCB
:10400000326D0A0057694669207374617475733A9A
:1040100020646973636F6E6E6563746564206D32CE
:104020006D0A000057694669207374617475733AAC
:104030002061707020636F6E6E6563740A0000000B
:1040400057694669207374617475733A206E6F20E6
:1040500061707020636F6E6E6563740A000000000B
:1040600057694669207374617475733A20696E20CC
:1040700074657374206D6F64650A00005769466942
:10408000207374617475733A206F7574207465734E
:1040900074206D6F64650A00525353492069732080
:1040A0002564200A0000000070B5044625462CB99E
:1040B00018A0FCF7FDF84FF0FF3070BD1A48A96852
:1040C0004163E9688163298A8187A97C80F83E1071
:1040D000A0F58071B1F83401FEF728FE1349A1F86C
:1040E0003401D1F83C01FEF72EFE1049C1F83C0125
:1040F0000E210E4890F8B420B5308154B53890F8B0
:10410000B400401C094981F8B40004200870002064
:10411000D3E700004552523A204E54502069732094
:10412000656D707479200A001008002010070020C7
:1041300010B5FFF73DF9044600BFFFF739F9001B42
:10414000B0F5167FF9D901F0FDF810BD10B50024C7
:104150000E4890F8540000B910BD0DA0FCF7A8F867
:104160000A48B0F87810553001F062FF044607485D
:10417000B0F87800A04202D00DA0FCF799F8FFF744
:1041800017F90249C1F87A0000BFE5E710070020DF
:104190005761726E696E673A2074696D656F7574E8
:1041A0002C20726573656E642064617461200A005E
:1041B0004552523A20726573656E64206461746181
:1041C000206572726F720A0010B502460024002347
:1041D00002B109B9002010BD022303E0D05C2044E5
:1041E000C4B25B1C481E9842F8D82046F3E7000092
:1041F00070B504460D462CB90FA0FCF759F84FF0E6
:10420000FF3070BD2B211248FCF715FA2A462146D3
:104210000F48801CFCF798F90D485338A0F87850E7
:10422000012180F85410FFF7C3F809495339C1F848
:104230007A000020E5E700004552523A206461749C
:104240006120697320656D707479200A0000000098
:104250006307002070B50446094D2CB909A0FCF78E
:1042600027F84FF0FF3070BD2879401C2179884233
:1042700004D12B210248801EFCF7DDF90020F2E773
:10428000650700204552523A2064617461206973C9
:1042900020656D707479200A0000000070B5044636
:1042A0000D46002624B90AA0FCF702F8701E70BD66
:1042B0002A4621460E4801F047FE0646AE4205D08A
:1042C0000CA0FBF7F5FF4FF0FF30F0E73046EEE7CC
:1042D0004552523A2067697A50757444617461207E
:1042E00062756620697320656D707479200A00001C
:1042F000910800204552523A204661696C6564205D
:10430000746F2072625772697465200A00000000A1
:10431000F0B587B005460E46174600242EB91FA0FB
:10432000FBF7C6FF601E07B0F0BD01A8FFF7C0FA9B
:1043300005208DF80800234890F84B10D0F84B006A
:10434000401C204AC2F84B00C8B28DF809008DF815
:104350000C501320FEF7EAFCADF806003A46314651
:104360000DF10D00FCF7F0F8172101A8FFF72CFF65
:104370008DF81A00172101A801F05AFE0446002CFE
:1043800006DA214610A0FBF793FF6FF00100CAE7A1
:10439000172101A8FFF72CFF2046C4E767697A526E
:1043A00065706F727444617461204572726F72201F
:1043B0002C20496C6C6567616C20506172616D0ADC
:1043C00000000000100700204552523A207561722B
:1043D00074207772697465206572726F722025642B
:1043E000200A00002DE9F04704460D461746089EB6
:1043F0004FF00009CA46C8461BB94FF0FF30BDE870
:10440000F08739462846FEF7D3FC8046B8F1000F06
:1044100007D1185D05F0070106FA01F108431855A8
:104420001EE0B8F1010F1BD1F0B205F00701C1F198
:10443000080140FA01F905F00700C0F10801FF206A
:10444000084100EA060A601C185C40EA0900611C89
:104450005854185D05F007010AFA01F10843185590
:104460000020CCE72DE9F04F8FB005460C461646EC
:104470009946189F4FF0000AD34600200E908046C0
:10448000B9F1000F00D027B94FF0FF300FB0BDE8F1
:10449000F08F3A46494601A8FCF756F8012F09D992
:1044A000394601A8FEF799FCB0F1FF3F02D14FF069
:1044B000FF30EBE731462046FEF77AFC8246BAF140
:1044C000000F0CD101A8405D04F007010841C6F1BE
:1044D0000802FF211141084040EA080821E0BAF132
:1044E000010F1ED101A9681C085C04F00701C1F18D
:1044F0000801711AC1F10802FF21114100EA010B04
:1045000001A8405D04F0070108410E9004F0070087
:10451000C0F108010BFA01F040EA08080E9848EAD9
:1045200000084046B2E7000002480068401C01490C
:1045300008607047C805002010B50346002002FB44
:10454000031010BD10B503460020541AB4FBF3F05D
:1045500010BD00002DE9FF5F07460E4693464FF061
:1045600000083446B1463546B24607B126B94FF089
:10457000FF3004B0BDE8F09F4FF00008ACE0781CBD
:1045800010F808001A2874D2DFE800F0747576A0DD
:10459000A07778797AA0A0A0A07B8594810D161FC2
:1045A0002B37434F5B6720784E49087008460178E7
:1045B0004DA0FBF77DFE8AE060784A4948700846C6
:1045C00041784EA0FBF774FE81E0D4F80200454923
:1045D000C1F802000846D0F802104EA0FBF768FEB2
:1045E00075E0D4F806003F49C1F806000846D0F847
:1045F00006104DA0FBF75CFE69E0D4F80A003949CB
:10460000C1F80A000846D0F80A104CA0FBF750FE8B
:104610005DE0D4F80E003349C1F80E000846D0F82A
:104620000E104BA0FBF744FE51E0D4F812002D49C8
:10463000C1F812000846D0F812104BA0FBF738FE64
:1046400045E0D4F816002749C1F816000846D0F80E
:1046500016104BA0FBF72CFE39E0D4F81A002149C4
:10466000C1F81A000846D0F81A104BA0FBF720FE3C
:104670002DE02BE02BE02AE029E028E027E026E0EF
:1046800025E099F800104BA0FBF712FE1FE04CA0AC
:10469000FBF70EFE1BE0A9796A792B79A868CDE9B2
:1046A0000032CDE90210EB78AA78298849A0FBF7FF
:1046B000FFFD0CE052A0FBF7FBFD56A0FBF7F8FD59
:1046C0009AF8001057A0FBF7F3FD00E000BF00BF11
:1046D00008F1010000F0FF08387840453FF74FAF80
:1046E000002046E7FA0500204576743A20455645F5
:1046F0004E545F4C4544202564200A004576743AA8
:10470000204556454E545F4375727461696E20258D
:1047100064200A004576743A4556454E545F546508
:104720006D702025640A00004576743A4556454E62
:10473000545F48756D2025640A0000004576743A80
:104740004556454E545F5072652025640A000000AE
:104750004576743A4556454E545F475A5F56616CEC
:1047600075652025640A00004576743A4556454E25
:10477000545F4D51325F56616C75652025640A00A7
:104780004576743A4556454E545F4D51375F5661F4
:104790006C75652025640A004576743A4556454E89
:1047A000545F4D513133355F56616C75652025641A
:1047B0000A000000525353492025640A00000000FB
:1047C0005452414E53504152454E545F444154411E
:1047D000200A0000574946495F4E5450203A205B5A
:1047E00025642D25642D256420253032643A25303A
:1047F00032643A253032645D5B25645D200A000036
:104800004D4F44554C4520494E464F202E2E2E0AE2
:1048100000000000574946204D4F44554C45202E7E
:104820002E2E0A006D6F64756C6554797065203AA0
:10483000205B25645D200A002DE9F04196B0054615
:10484000002600200390029000248046002735B9FE
:1048500082A0FBF72DFD601E16B0BDE8F081FEF7CB
:10486000ADFD03AA87498848FEF74EFF0646002E95
:1048700071D186A0FBF71CFD824C20790F284FD008
:104880000ADC0E2873D2DFE800F07216721A727218
:10489000433872724472453C182852D006DC112805
:1048A00047D0142846D0162861D134E0222854D0AD
:1048B0002A285CD130E02046FEF768FE5FE0E2790E
:1048C000A17977A0FBF7F4FC02A8009007F109009A
:1048D000BDF80C301A1A6B480830C11904AB4046B9
:1048E000FFF7ACF840B9E37904A92046029AFFF734
:1048F00007F86FA0FBF7DCFC41E02046FEF7A4FDC3
:104900003DE02046FEF7A0FD2046FFF74BF936E0DC
:1049100000BF00BF00BF00BF2046FFF79BFC2EE09A
:104920002046FEF791FD65A0FBF7C2FCFFF700FCF7
:1049300025E024E02046FFF78DFC65A0FBF7B8FCDE
:104940001DE02046FFF786FC2046FFF7ADFB68A080
:10495000FBF7AEFC13E013E009E02046FFF77AFC1A
:104960002046FFF7F1F868A0FBF7A2FC07E0022160
:104970002046FEF7B9FD6BA0FBF79AFC00BF0DE0E7
:1049800016F1020F0AD13F4C01212046FEF7ACFD83
:104990006AA0FBF78DFC6FF001005DE73948401E0F
:1049A0000078062853D2DFE800F052031324304188
:1049B00000203449491E08701E22F731A1F1790008
:1049C000FFF7C8FD1B212F487D30FBF734FE3FE089
:1049D00000202C49491E0870012201F23311A1F177
:1049E0009A00FFF7B7FD1B2126489830FBF723FEFE
:1049F0002EE000202349491E08700846D0F84720C1
:104A000024317E30FFF7A6FD22E000201D49491E1B
:104A100008700C2201F59A71A1F18000FFF79AFD50
:104A20001B211848B330FBF706FE11E000201549A2
:104A3000491E0870412201F5A071A1F17100FFF734
:104A400089FD41210F48CE30FBF7F5FD00E000BFA6
:104A500000BF2846FEF74EFC0020FDE647697A7746
:104A600069747348616E646C65204572726F722060
:104A70002C20496C6C6567616C20506172616D0A15
:104A800000000000110700209108002047657420F5
:104A90004F6E65205061636B6574210A0000000051
:104AA000666C6167202578202578200A00000000C8
:104AB00041636B44617461203A200A007265706F33
:104AC00072743A4D4355207265626F6F74210A000B
:104AD00041636B2050524F44554354494F4E5F4DF4
:104AE0004F44452073756363657373200A000000AB
:104AF00041636B204745545F55545420737563637D
:104B0000657373200A00000041636B204745545FC2
:104B10004D6F64756C652073756363657373200AEC
:104B2000000000004552523A20636D6420636F64B8
:104B300065206572726F72210A0000004552523A78
:104B400020636865636B2073756D206572726F7288
:104B5000210A000010B546200A4908600A48C860CA
:104B6000084601F095F918B908A0FBF7A1FB02E08F
:104B70000BA0FBF79DFB40F281110E48FBF75BFD9C
:104B800010BD000091080020A1080020726243724D
:104B9000656174652053756363657373200A000053
:104BA0007262437265617465204661696C64200AB3
:104BB000000000001007002030B587B00546002433
:104BC000062D7CD2DFE805F003305F90BDEA01A836
:104BD000FEF76EFE0B208DF808008B4890F84B1006
:104BE000D0F84B00401C884AC2F84B00C8B28DF880
:104BF00009000520FEF79AF8ADF80600092101A882
:104C0000FFF7E2FA8DF80C00092101A801F010FA73
:104C10000446002C03DA21467CA0FBF749FB09215E
:104C200001A8FFF7E5FAEAE004A8FEF741FE092033
:104C30008DF81400744890F84B10D0F84B00401CCD
:104C4000714AC2F84B00C8B28DF815008DF81850A3
:104C50000620FEF76BF8ADF812000A2104A8FFF752
:104C6000B3FA8DF819000A2104A801F0E1F904460D
:104C7000002C03DA214665A0FBF71AFB0A2104A8E1
:104C8000FFF7B6FABBE004A8FEF712FE09208DF884
:104C900014005D4890F84B10D0F84B00401C5A4A65
:104CA000C2F84B00C8B28DF815008DF818500620D8
:104CB000FEF73CF8ADF812000A2104A800E09AE0E3
:104CC000FFF782FA8DF819000A2104A801F0B0F963
:104CD0000446002C03DA21464CA0FBF7E9FA0A212E
:104CE00004A8FFF785FA8AE001A8FEF7E1FD13208A
:104CF0008DF80800444890F84B10D0F84B00401C49
:104D0000414AC2F84B00C8B28DF809000520FEF7F1
:104D10000DF8ADF80600092101A8FFF755FA8DF846
:104D20000C00092101A801F083F90446002C03DAE4
:104D3000214636A0FBF7BCFA092101A8FFF758FA73
:104D40005DE001A8FEF7B4FD15208DF808002E489F
:104D500090F84B10D0F84B00401C2B4AC2F84B0087
:104D6000C8B28DF809000520FDF7E0FFADF8060098
:104D7000092101A8FFF728FA8DF80C00092101A8E4
:104D800001F056F90446002C03DA21461FA0FBF778
:104D90008FFA092101A8FFF72BFA30E001A8FEF7EE
:104DA00087FD29208DF80800174890F84B10D0F89F
:104DB0004B00401C144AC2F84B00C8B28DF80900E1
:104DC0000520FDF7B3FFADF80600092101A8FFF7A4
:104DD000FBF98DF80C00092101A801F029F904461E
:104DE000002C03DA214609A0FBF762FA092101A889
:104DF000FFF7FEF903E00CA0FBF75AFA00BF00BF73
:104E0000204607B030BD0000100700204552523A3E
:104E10002075617274207772697465206572726F93
:104E200072202564200A00004552523A20436667EA
:104E30004D6F6465206572726F72210A0000000078
:104E40002DE9F0410746884615461E460024FBF72B
:104E500097FF3846FBF760FFFBF7DEFF4046FBF7A6
:104E60005BFFFBF7D9FFFBF78BFF47F00100FBF778
:104E700053FFFBF7D1FF00BF0CE0681EA04204D136
:104E80000020FBF711FF305503E00120FBF70CFF7A
:104E90003055641CAC42F0DBFBF798FFBDE8F081B5
:104EA00070B504460D460026FBF76AFF2046FBF767
:104EB00033FFFBF7B1FF2846FBF72EFFFBF7ACFFF4
:104EC000FBF75EFF44F00100FBF726FFFBF7A4FFB2
:104ED0000020FBF7E9FE0646FBF778FF304670BD81
:104EE00070B506460C461546FBF74AFF3046FBF701
:104EF00013FFFBF791FF2046FBF70EFFFBF78CFF3C
:104F00002846FBF709FFFBF787FFFBF75FFF70BD44
:104F100000254FF4E13001F0BBF8FDF799FE4FF4A6
:104F2000A060FCF723FEFBF70BFEFCF72DFDFDF761
:104F30000FFEFCF7B1FDFCF77DFEFCF721FEFCF750
:104F40000DFDBEE10020FCF7CDFCDE480088DE4907
:104F50000988884208DCDD48007828B90020DC494F
:104F60000860DC4908700DE0D6480088D6490988F9
:104F7000884207DDD548007820B90120D44908606F
:104F8000D4490870D4480078D249097888420DD0B5
:104F9000CE48007850B94FF487720321CD4800788D
:104FA000FBF76CFFCB480078CB490870CB484078C2
:104FB000C9490978884212D0C448007801280ED126
:104FC000C64948784FF487720321FBF757FFC3485F
:104FD0004078C0490870C1484078BF490870BB4854
:104FE0000078012807D1BD48007808B9012000E009
:104FF0000020B7490860BA480078BA490988884251
:105000001DDAB9480078B9490988884217DDB848DF
:105010000088B8490988884211DAB7480088B7493A
:10502000098888420BDDB6480088B649098888425D
:1050300005DAB5480088B5490988884208DBB448D4
:10504000006808B9012000E00020B149086002E0D2
:105050000020AF4908600020FCF7B6FC0446022C93
:1050600004D1AC480078401CAA490870A9490878C6
:1050700000EBD0714910A0EB410100297ED10A2D2F
:105080007CDB002211461046FCF77AFE022200214A
:105090001020FCF775FE924802789FA1A048FBF70C
:1050A00013F910239E4A00212020FCF7EFFE012275
:1050B00000214020FCF764FE022200215220FCF770
:1050C0005FFE8948027897A19548FBF7FDF8102309
:1050D000934A00216020FCF7D9FE03220221002020
:1050E000FCF74EFE042202211020FCF749FE804806
:1050F00002888EA18A48FBF7E7F81023884A02212C
:105100002020FCF7C3FE052204210020FCF738FE16
:10511000062204211020FCF733FE07220421202060
:10512000FCF72EFE082204213020FCF729FE6548FA
:10513000028882A17A48FBF7C7F81023784A042135
:105140004020FCF7A3FE092206210020FCF718FEF0
:105150000A2206211020FCF713FE0B220621202034
:10516000FCF70EFE0C2206213020FCF709FE6248F7
:10517000028872A16A48FBF7A7F800E006E0102356
:10518000674A06214020FCF781FE8AE061490878E1
:1051900000EBD0714910A0EB41010129F5D10A2D96
:1051A0007FDB0D2200210846FCF7EAFD0E220021DC
:1051B0001020FCF7E5FD0F2200212020FCF7E0FD88
:1051C000102200213020FCF7DBFD4D4802885BA156
:1051D0005348FBF779F81023514A00214020FCF78F
:1051E00055FE112202210020FCF7CAFD12220221E5
:1051F0001020FCF7C5FD132202212020FCF7C0FD82
:10520000142202213020FCF7BBFD3F4802884BA14D
:105210004348FBF759F81023414A02214020FCF78C
:1052200035FE052204210020FCF7AAFD06220421F8
:105230001020FCF7A5FD072204212020FCF7A0FD8B
:10524000082204213020FCF79BFD1E4802883BA168
:105250003348FBF739F81023314A04214020FCF78A
:1052600015FE092206210020FCF78AFD0A220621EC
:105270001020FCF785FD0B2206212020FCF780FD85
:105280000C2206213020FCF77BFD1B4802882BA155
:105290002348FBF719F81023214A06214020FCF788
:1052A000F5FD00F09DFFE0B2FDF724FA0B48FFF793
:1052B000C3FAE0B2FBF77EFE681CC5B26420FDF7BE
:1052C000E9FC3FE616000020240000200E0000202C
:1052D000808121421100002012000020FA050020E8
:1052E000A40500201E000020A505002020000020AD
:1052F00014000020220000201C0000202A000020B2
:1053000018000020260000201A000020280000209D
:10531000B4012242100000203A253264430000000C
:10532000DC0500203A253264252500003A25326448
:105330006870612020202020000000003A2534649D
:1053400070706D00012080F3138800BF00BF074814
:10535000006800F4E06006490843001D0349086046
:10536000BFF3408F00BF00BFFEE700000CED00E080
:105370000000FA052DE9F04D16460F4694B01C4684
:1053800021F0004123F00042002814BF4FF0010C2F
:105390004FF0000C0CEB470CFE4B0CEB03054FEAF7
:1053A000630C65452BD3350018BF012505EB44057B
:1053B0001D44F94B9D4222D3F84B52EA060C02D011
:1053C0009F4205D148B914B000201946BDE8F08DC0
:1053D000002808BF4FF0000C01D04FF0010C0CEB7F
:1053E000470313F5001F0AD8002E14BF4FF0010C1D
:1053F0004FF0000C0CEB440313F5001F07D914B059
:10540000324623463946BDE8F04DFDF715BADFF8C0
:1054100090834FF0000A002FB8BF424523DAE14BDA
:105420009A42A8BF4FF0020A1DDADC4B93421ADC05
:10543000DD4B03EB2253142B08DDC3F1340C26FAA9
:105440000CF303FA0CFCB4450DD108E05EB9C3F1CE
:10545000140C22FA0CF303FA0CFC944503D103F06C
:105460000103C3F1020A51EA00031BD1002C19DA2F
:10547000002F18BFBAF1020F02D0BAF1010F07D006
:105480000220FBF77AF914B0BDE8F04DFDF7CCB976
:105490000220FBF772F9FDF7C7F914B081F0004163
:1054A000BDE8F08D330070D1424525D107F180422F
:1054B00012F5801201BF00280020B84914B008BFBF
:1054C000BDE8F08DB548884207DC002CA1BF184626
:1054D000214614B0BDE8F08D07E0002CBFBF184690
:1054E00084F0004114B0BDE8F08DB0497944D1E9B1
:1054F000000114B0BDE8F08DDFF8A0C262452AD1EA
:10550000002C24DA39B1414517D1002804BF00200E
:1055100002461CD106E040B10220FBF72EF9FDF750
:1055200093F90A46394600F0D7BA9D4A394614B075
:10553000002062F31E01BDE8F08D08DA14B03B468E
:10554000BDE8F04D02460020614600F079BF14B07E
:105550003946BDE8F08D414517DAB4F1804F0CD0E3
:10556000A4F10053B3F1FF530FD13B1E0DDB14B078
:105570001946BDE8F04D00F034BD3B4614B002467C
:10558000BDE8F04D194601F019B9050027F00043B8
:105590003AD1E1B1414537D1002F06DD002CA1BF42
:1055A0000020414614B0BDE8F08D002F01DD002C35
:1055B0001FDB002F16DA002C14DBBAF1010F4FF0BD
:1055C000000014BF76497A4914B0BDE8F08DBAF1F5
:1055D000020F18BF002F0CD0BAF1010F09D1002F14
:1055E00007DA0BE0002FB8BF002C0DDABAF1010F7B
:1055F00004D0002014B00146BDE8F08D14B00020A6
:105600004FF00041BDE8F08D4FF0010808EBE77C5A
:10561000CDF814C05CEA0A0C0DD0DFF898C16245E1
:105620007EDDDFF894C1654B624512DD8B420ADBFB
:10563000002C18DB23E00120FBF79FF814B0BDE835
:10564000F04DFDF7FBB8554A8A4202DC002C0ADC1B
:1056500015E0994202DA002C11DA04E04F4B99422E
:1056600019DD002C0BDD0220FBF787F8FDF7ECF8C5
:105670004B4A14B061F31E021146BDE8F08D0220C2
:10568000FBF77BF8FDF7E8F8444A14B061F31E021B
:105690001146BDE8F08D0022394601F0B5FA074603
:1056A0000D466FF0010201F0A0FE4FF05532444B61
:1056B00001F0B8F93A462B4601F080F80022414B40
:1056C00001F0B0F980468B463A462B461046194603
:1056D00001F074F842465B4601F070F888460E907F
:1056E0004FF0C042384B3846294601F067F88346F0
:1056F0000091364A344B41460E9801F05FF88046DF
:105700000191334A334B3846294601F057F8424657
:10571000019B01F079FA0D4602460B460C9000E021
:1057200011E05846009900F0CFFD002788465A4600
:105730003846009B01F068FA2B460C9A01F072F98A
:10574000024600F079B90020B1F5801F07DA352252
:105750002846194601F049FE05466FF0340000EB7B
:105760002150A0F2FF300190C1F3130040F07F619F
:1057700041F04051029118498842D8BF4FF0000BC8
:1057800035DD16498142C8BF4FF0010B2FDC4FF0C9
:10579000000B25E0FFFF1F00FFFF0F000000F03FA0
:1057A0000000F07F0000404301FCFFFF7028000074
:1057B0000000F0FF0000E0410000F043FFFFEF3F7A
:1057C0005555D53F0000E03F4715F73FFE822B655A
:1057D00044DF5DF80BAE543E8E9803007AB60B00A2
:1057E0000198401C01900298A0F580100290FF489B
:1057F0000299784400EBCB000991D0E900232846B8
:105800000B93129201F000FA00910A9028460B9B2C
:10581000129A099900F058FD02460B460020F449FF
:1058200000F00EFECDE90C010B46024600990A98E5
:1058300000F0C4FF0690EF4888460027784402999C
:10584000006810904FF0005040EA610000EB8B4080
:1058500000F5002102910B9B129A109801F0D4F9E7
:105860002A46099B01F0DEF83A46434600F0A6FFBF
:105870000891129038464146029B109A00F09EFF14
:10588000009B0A9A01F0CEF8089B129A01F0BCF92D
:10589000DDE90C2300F092FF0B91069A129043462B
:1058A0001046194600F08AFF05460246D2480B46CC
:1058B0000A9106217844FCF761FF0A9B2A46089169
:1058C00002901046194600F079FF089B029A00F0FA
:1058D00075FF05460991434638461946069A00F079
:1058E000F3FC0B9B129A00F069FF2A46099B00F01B
:1058F000EBFCCDE908013A4643461046194600F054
:105900005DFF0A910022BD4B009000F0DDFCDDE957
:10591000082300F0D9FC0D463A46B84B384601F052
:1059200073F90A9B009A01F06FF9DDE9082301F091
:1059300079F8CDE908013A462B461046414600F079
:105940003DFF00910A90DDE908014346069A00F008
:1059500035FF069088462B463A460B99129800F080
:105960002DFF4346069A00F0AFFC80460B460246E8
:105970000D9100990A9800F0A7FC00200F460546FB
:10598000009B0A9A01F040F942460D9B01F04AF84B
:1059900088460E904FF06042994B2846394600F0F9
:1059A0000DFF02910090974A954B41460E9800F0EA
:1059B00005FF80460391944A944B2846394600F0EF
:1059C000FDFE4246039B00F07FFC914A7A4402EBC5
:1059D000CB03D3E9002300F077FC0546079101983B
:1059E00000F086FE0C9003912A46079B02990098CE
:1059F00000F06AFC874A7A4402EBCB03D3E9002328
:105A00009346019300F060FC039B0C9A00F05CFC51
:105A1000002788463846039B0C9A01F0F5F85A4651
:105A2000019B01F0F1F8029B009A01F0EDF82A4683
:105A3000079B00F0F7FF02460020069005986C4D8A
:105A4000AAF10103184301D1734D069000200B46C3
:105A500004903046214600F0B1FE82468B46234634
:105A600030461946049A01F0CFF83A46434600F012
:105A7000A5FE52465B4600F027FC06468A463A469B
:105A800043462146049800F099FE04460F463246EC
:105A9000534600F019FC614A8B46914221DBABEB87
:105AA000020353EA000210D122463B4601F0ACF853
:105AB000804603915A4A5B4B3046514600F004FC45
:105AC0004246039B00F078FF27D20220FAF755FEEA
:105AD000FCF7BAFE0A46294614B062F31E01BDE87F
